:020000040800F2
:10000000A0170020D5010008C90D0008330600081C
:10001000C50D00086D0400087318000800000000FA
:10002000000000000000000000000000D9140008DB
:1000300071040008000000003D0E0008ED150008E6
:10004000EF010008EF010008EF010008EF010008D0
:10005000EF010008EF010008EF010008EF010008C0
:10006000EF010008EF010008EF010008EF010008B0
:10007000EF010008EF010008EF010008EF010008A0
:10008000EF010008EF010008EF010008EF01000890
:10009000EF010008EF010008EF010008EF01000880
:1000A000EF010008EF010008EF010008EF01000870
:1000B000EF010008EF010008EF010008EF01000860
:1000C000EF010008EF010008EF010008EF01000850
:1000D000EF01000851160008EF010008EF010008C9
:1000E000EF010008EF010008EF010008EF01000830
:1000F000EF010008EF010008EF010008EF01000820
:10010000EF010008EF010008EF010008EF0100080F
:10011000EF010008EF010008EF010008EF010008FF
:10012000EF010008EF010008EF010008EF010008EF
:1001300000F002F800F03FF80AA090E8000C8244BA
:100140008344AAF10107DA4501D100F034F8AFF297
:10015000090EBAE80F0013F0010F18BFFB1A43F0A5
:10016000010318476427000084270000103A24BFC9
:1001700078C878C1FAD8520724BF30C830C144BF0C
:1001800004680C607047000000230024002500264E
:10019000103A28BF78C1FBD8520728BF30C148BFEA
:1001A0000B607047782900F07780002070471FB5FA
:1001B0001FBD10B510BD00F027F91146FFF7F7FF7E
:1001C00001F0B2FB00F045F903B4FFF7F2FF03BC06
:1001D00001F051FB0948804709480047FEE7FEE768
:1001E000FEE7FEE7FEE7FEE7FEE7FEE7FEE7FEE7E7
:1001F00004480549054A064B70470000F115000800
:1002000031010008A0110020A0170020A013002039
:10021000A0130020704700000FB4044910B503AAD2
:10022000029800F0C3F810BC5DF814FB3C000020FD
:100230002DE9F0410E460446002020622046E16888
:10024000884730B3252805D0D4E901219047206A9A
:10025000401CF2E7E168204600278847050018D0D7
:10026000A5F14100192802D820354FF40067324625
:10027000294620462760FFF795FF40B1012804D0AA
:10028000F61D26F007060836D8E7361DD6E72846BD
:10029000DAE7206ABDE8F08170B504460D462146D4
:1002A0001068AFF300802188090502D50F4A7A440F
:1002B00002E00E4A7A440E32002104F1240305E0E4
:1002C00000F00F060009965D5E54491C0028F7D126
:1002D00020780023000704D5702D02D009B1022335
:1002E00011322046BDE8704000F006B8DE2500005F
:1002F00070477047704770472DE9F0470D469946A3
:100300009246044600F124080168880604D5E06995
:1003100021F01001216000E00120A84201DD471B0F
:1003200000E00027A1697A1902EB0900081AA06110
:100330002078C00602D42046AFF30080002608E0F3
:10034000D4E901211AF806009047206A401C761C67
:1003500020624E45F4DB2078C0060AD52046AFF374
:10036000008006E0D4E9012130209047206A401C3B
:100370002062381EA7F10107F4DC07E0D4E901216F
:1003800018F805009047206A401C2062281EA5F13D
:100390000105F3DC2046AFF300802078000602D58B
:1003A0000220BDE8F0870120FBE70000074B70B595
:1003B0000D467B4400F011F80446284600F020F872
:1003C00010B14FF0FF3070BD204670BD57150000D2
:1003D00001694A1C02610878704700B58FB0CDE909
:1003E00001310021059105497944CDE903101146F9
:1003F0006846FFF71DFF0FB000BD0000E5FFFFFFDF
:10040000007B00F080007047754600F02BF8AE4688
:1004100005006946534620F00700854618B020B510
:10042000FFF7E6FEBDE820404FF000064FF0000762
:100430004FF000084FF0000B21F00701AC46ACE88C
:10044000C009ACE8C009ACE8C009ACE8C0098D46F9
:10045000704710B50446AFF300802046BDE8104059
:10046000FFF7B2BE004870474011002000BFFEE712
:1004700070472DE9F04102460025002600200023A8
:100480000024002791F803C00CF00F0591F803C079
:100490000CF0100CBCF1000F03D091F802C04CEA34
:1004A000050591F800C0BCF1000F31D014680020A0
:1004B0002BE04FF0010C0CFA00F3B1F800C00CEA8D
:1004C00003069E4220D183004FF00F0C0CFA03F775
:1004D000BC4305FA03FC4CEA040491F803C0BCF1E8
:1004E000280F06D14FF0010C0CFA00FCC2F814C022
:1004F0000AE091F803C0BCF1480F05D14FF0010CA0
:100500000CFA00FCC2F810C0401C0828D1D31460BB
:10051000B1F800C0BCF1FF0F34DD546800202EE0BC
:1005200000F1080C4FF0010808FA0CF3B1F800C014
:100530000CEA03069E4221D183004FF00F0C0CFA07
:1005400003F7BC4305FA03FC4CEA040491F803C02A
:10055000BCF1280F05D100F1080C08FA0CF8C2F81C
:10056000148091F803C0BCF1480F07D100F1080CCA
:100570004FF0010808FA0CF8C2F81080401C082857
:10058000CED35460BDE8F081F0B50A4600230024C4
:100590000021002500F00046B6F1004F02D11D4EAB
:1005A000F16901E01B4E7168C0F3034583B200F4AA
:1005B0004016B6F5401F08D121F07061154E7668DF
:1005C00026F07066134F7E6012E000F48016B6F5D8
:1005D000801F06D1032606FA05F4A14341F070619D
:1005E00006E0460D360103FA06F6B14341F07061AC
:1005F00022B1460D360103FA06F6314300F00046FB
:10060000B6F1004F02D1034EF16101E0014E71607D
:10061000F0BD0000000001400246002093680B403E
:100620000BB1012000E0002070474161704701617B
:10063000704700BFFEE7000008B50121142000F05C
:100640000FFC01211148FFF79FFF0220ADF80000C9
:1006500048208DF8030069460D48FFF70AFF4FF464
:100660000050ADF8000048208DF8030069460848A6
:10067000FFF7FFFE0120ADF8000028208DF80300F1
:1006800069460448FFF7F5FE08BD0000000230008F
:10069000001001400008014010B5044614B10120CB
:1006A000244908702348007868B302212248FFF7E4
:1006B000B3FF58B14FF400511F48FFF7ADFF28B109
:1006C00001211E48FFF7A8FF01281CD10A2001F0D4
:1006D000F7F800201749087002211748FFF79CFF20
:1006E00008B9012010BD4FF400511348FFF794FFE3
:1006F00008B90220F6E701211048FFF78DFF012815
:1007000015D10320EEE702210B48FFF785FF0128F2
:100710000DD141030848FFF77FFF012807D10121D0
:100720000648FFF779FF10B9012002490870002040
:10073000D8E700002C000020001001400008014014
:1007400070B506460F484088401E83B20D480088A9
:10075000401E82B20021084600F05CF900240CE043
:10076000002504E0304600F067FA681C85B20548B1
:100770004088A842F6DC601C84B202480088A0428F
:10078000EEDC70BD5800002030B504460D46294609
:10079000204600F020F94FF4784000F04DFA30BDCB
:1007A00010B500F04FFC00F00EF9112000F062FAD5
:1007B000782001F085F8B12000F05CFA012000F00B
:1007C00021FA2C2000F01EFA2D2000F01BFAB22096
:1007D00000F050FA012000F015FA2C2000F012FA77
:1007E0002D2000F00FFAB32000F044FA012000F0B1
:1007F00009FA2C2000F006FA2D2000F003FA01205F
:1008000000F000FA2C2000F0FDF92D2000F0FAF99C
:10081000B42000F02FFA072000F0F4F9C02000F017
:1008200029FAA22000F0EEF9022000F0EBF9842072
:1008300000F0E8F9C12000F01DFAC52000F0E2F94F
:10084000C22000F017FA0A2000F0DCF9002000F0C6
:10085000D9F9C32000F00EFA8A2000F0D3F92A203B
:1008600000F0D0F9C42000F005FA8A2000F0CAF99F
:10087000EE2000F0C7F9C52000F0FCF90E2000F0D2
:10088000C1F9362000F0F6F9C82000F0BBF9E020ED
:1008900000F0F0F90F2000F0B5F91A2000F0B2F9DD
:1008A0000F2000F0AFF9182000F0ACF92F2000F075
:1008B000A9F9282000F0A6F9202000F0A3F92220B1
:1008C00000F0A0F91F2000F09DF91B2000F09AF91C
:1008D000232000F097F9372000F094F9002000F071
:1008E00091F9072000F08EF9022000F08BF910201A
:1008F00000F088F9E12000F0BDF90F2000F082F946
:100900001B2000F07FF90F2000F07CF9172000F089
:1009100079F9332000F076F92C2000F073F92920C2
:1009200000F070F92E2000F06DF9302000F06AF927
:10093000302000F067F9392000F064F93F2000F022
:1009400061F9002000F05EF9072000F05BF9032058
:1009500000F058F9102000F055F92A2000F08AF92B
:10096000002000F04FF9002000F04CF9002000F0CA
:1009700049F97F2000F046F92B2000F07BF9002098
:1009800000F040F9002000F03DF9002000F03AF9B5
:100990009F2000F037F9F02000F06CF9012000F002
:1009A00031F9F62000F066F9002000F02BF93A202A
:1009B00000F060F9052000F025F9292000F05AF92F
:1009C00000F014F810BD10B5642000F079FF32205B
:1009D00000F076FF10BD30B504460D462B4622468A
:1009E0002946204600F016F830BD000000B52C2046
:1009F00007490881012088718020088048802A20CA
:100A000048812B208881A821362000F055F900BDAF
:100A100058000020F0B504460D4616461F461349FF
:100A2000488900F027F9201200F0ECF8E11CC8B268
:100A300000F0E8F8301200F0E5F8F11CC8B200F060
:100A4000E1F80A49888900F015F9281200F0DAF86F
:100A5000A91CC8B200F0D6F8381200F0D3F8B91CBF
:100A6000C8B200F0CFF800F01FF9F0BD5800002028
:100A70002DE9FF4F82B081468A469346DDE90F6437
:100A8000414800880190A6F12000C6B204EBD47062
:100A900009EB6000401E82B20AEB0400401E83B2E4
:100AA000514648460094FFF7B5FF119860BB0025FA
:100AB00027E00C2C07D106EB4600344901EB8000FF
:100AC00010F8058004E0324800EB061010F80580AD
:100AD00000270FE008F0010020B10BF0FF0000F04C
:100AE00091F803E00599C8B200F08CF84FEA680865
:100AF000781CC7B204EBD471B7EB610FEADB681C5A
:100B0000C5B2A542D5DB2DE0002529E00C2C07D18C
:100B100006EB46001D4901EB800010F8058004E05B
:100B20001B4800EB061010F80580002711E016485E
:100B3000A0F800B008F0010038B10AEB050291B24C
:100B400009EB070290B2FFF71FFE4FEA6808781C16
:100B5000C7B204EBD471B7EB610FE8DB681CC5B218
:100B6000A542D3DB0849019808800A484088401E06
:100B700083B208480088401E82B200210846FFF771
:100B800049FF06B0BDE8F08F2E000020921A000841
:100B9000061F0008580000202DE9FE4106460F46BA
:100BA00015461C46DDF824801DE013480088401ED1
:100BB000B04204DB10484088401EB84201DABDE86C
:100BC000FE8120788DE821010C4803880C480288BA
:100BD00039463046FFF74CFF284605EBD07106EB4F
:100BE00061018EB2641C20787E2802DC20782028E7
:100BF000DBDA00BFE3E700005800002030000020EF
:100C00002E00002010B504464FF4805007490860BC
:100C10004020074908612146064800F035FC4FF4A2
:100C200080500249091F086010BD0000140C0140EB
:100C3000001001400038004010B504464FF48050C9
:100C4000094908604020094908612112084800F05C
:100C50001BFCE1B2064800F017FC4FF4805002493B
:100C6000091F086010BD0000140C01400010014075
:100C70000038004010B504464FF480500749086022
:100C8000402007494861E1B2064800F0FDFB4FF4FF
:100C900080500249091F086010BD0000140C01407B
:100CA000001001400038004000B502490889FFF7F4
:100CB000E1FF00BD5800002030B505460C4628462F
:100CC000FFF7D8FFE0B2FFF79DFF30BD10B5002061
:100CD0003A4A926942F00402384B9A611A46926984
:100CE00042F020029A6100BF64E000EB4002344B06
:100CF00003EB8202127A072A2FDC00EB400203EB9F
:100D000082025268126800EB40032D4C04EB83030F
:100D10001B7A9B009B1C03249C40A24300EB4003D6
:100D2000274C04EB83035B681A6000EB4002234608
:100D300003EB82025268126800EB400304EB83036A
:100D40001B7A9C000323A3401A4300EB40031C4C76
:100D500004EB83035B681A602BE000EB4002184B46
:100D600003EB8202127AA2F1080100EB400203EBCE
:100D70008202526852688B009B1C03249C40A24351
:100D800000EB40030E4C04EB83035B685A6000EBFE
:100D90004002234603EB8202526852688C00032310
:100DA000A3401A4300EB4003054C04EB83035B684C
:100DB0005A60401C022898D310BD00000010024069
:100DC0001400002000BFFEE77047000070B500214E
:100DD00000230F22C47804B3154C246804F4E064A3
:100DE000C4F5E064210AC1F10403CA40447804FA5E
:100DF00003F184781440214309010E4C0678A15573
:100E0000047804F01F050124AC4005786D11AD0095
:100E100005F1E025C5F8004109E0047804F01F055C
:100E20000124AC40044D0678761145F8264070BD8B
:100E30000CED00E000E400E080E100E0704700001D
:100E400029B1064AD2690243044BDA6104E0034A3D
:100E5000D2698243014BDA61704700000010024002
:100E600029B1064A92690243044B9A6104E0034A9D
:100E700092698243014B9A61704700000010024062
:100E800030B500210022002400232D4D6D6805F0AF
:100E90000C0121B1042905D0082923D105E0294DF1
:100EA000056022E0274D05601FE0254D6D6805F4C3
:100EB0007012234D6D6805F48034022505EB9242D3
:100EC0001CB9214D554305600BE01D4D6D6805F4BF
:100ED00000351DB11C4D5543056002E0194D5543C9
:100EE000056002E0174D056000BF00BF144D6D683E
:100EF00005F0F0010909154D6B5C0568DD404560A2
:100F00000F4D6D6805F4E061090A104D6B5C456892
:100F1000DD4085600A4D6D6805F46051C90A0B4DCE
:100F20006B5C4568DD40C560054D6D6805F440416A
:100F3000890B074D6B5CC568B5FBF3F5056130BDEA
:100F40000010024000127A0000093D00420000201B
:100F50005200002008B5012141F20400FFF780FF94
:100F6000E020ADF8000018208DF8030003208DF874
:100F7000020069461248FFF77CFAE0211048FFF7AB
:100F800056FB00200F4908804FF4827048800020F3
:100F900088800220C88001200881400248813820D2
:100FA00088810020C88107200882074800F04EFA97
:100FB0000121054800F0BAF8FF2000F007F808BD4D
:100FC00000080140661000200030014070B5054661
:100FD000002405E0601CC4B2C82C01DD002070BDF7
:100FE00002210E4800F024FA0028F3D029460B48CD
:100FF00000F02AFA002405E0601CC4B2C82C01DD10
:101000000020ECE70121054800F012FA0028F3D097
:10101000024800F016FAC0B2E1E7000000300140DB
:1010200010B50446054884810146054800F00EFAD3
:101030000121034800F07AF810BD0000661000207E
:101040000030014000B587B001211920FFF708FFEB
:101050004FF42040ADF8040003208DF8060018205E
:101060008DF8070001A92E48FFF703FA4FF48040DE
:10107000ADF8040048208DF8070003208DF8060025
:1010800001A92748FFF7F5F941F20200ADF8040085
:1010900003208DF8060010208DF8070001A92048D4
:1010A000FFF7E7F94020ADF8040003208DF80600B3
:1010B00010208DF8070001A91A48FFF7DAF94FF45C
:1010C00080511748FFF7B1FA40211648FFF7ADFAF3
:1010D00001218803FFF7B4FE0020ADF808004FF4AB
:1010E0008270ADF80A000020ADF80C00ADF80E00DB
:1010F000ADF810004FF40070ADF812000020ADF80C
:101100001400ADF816000720ADF8180002A9064833
:1011100000F09CF90121044800F008F807B000BD78
:10112000000C0140001001400038004021B102884D
:1011300042F04002028004E002884FF6BF731A407A
:101140000280704710B50020044908600620FFF7B0
:101150003DFF01200249C1F8880110BD88012142EC
:101160000000214210B504462403FFF7EBFF00F016
:10117000ADF800200B4908602020FFF727FFC4F3DB
:101180000740FFF723FFC4F30720FFF71FFFE0B27C
:10119000FFF71CFF01200449C1F8880100F096F810
:1011A00010BD0000880121420000214208B5012144
:1011B0000420FFF755FE1C20ADF8000010208DF82C
:1011C000030003208DF8020069460B48FFF751F930
:1011D0001C210948FFF72BFAFFF7BCFE0820FFF798
:1011E0001FFF00F039F8054908800846018804A06F
:1011F000FFF712F808BD000000080140340000208D
:101200002578200A000000002DE9F04106460C4632
:10121000174600200F4908600320FFF7D7FEC4F3EC
:101220000740FFF7D3FEC4F30720FFF7CFFEE0B27D
:10123000FFF7CCFE002505E0FF20FFF7C7FE705545
:10124000681C85B2BD42F7DB012002490860BDE899
:10125000F08100008801214210B5002400200E49D1
:1012600008609020FFF7B2FE0020FFF7AFFE0020DD
:10127000FFF7ACFE0020FFF7A9FEFF20FFF7A6FE58
:1012800044EA0024FF20FFF7A1FE044301200349A4
:10129000C1F88801204610BD88012142000021428A
:1012A00010B500240020074908600520FFF78EFED6
:1012B000FF20FFF78BFE044601200349C1F8880197
:1012C000204610BD880121420000214210B500BF18
:1012D000FFF7E6FF00F001000028F9D110BD000083
:1012E0002DE9F04781460F4616464FEA1738C7F3F7
:1012F0000B0ACAF58054A64200DC344644E04FEAAB
:1013000008314FF480522248FFF77EFF002508E0A5
:101310000AEB05001E49085CFF2800D003E0681CAA
:1013200085B2A542F4DB00BFA54216DA4046FFF7BE
:1013300019FF002507E019F8050005EB0A01144A1A
:101340005054681C85B2A542F5DB4FEA08314FF4D2
:1013500080520F4800F01EF804E022463946484605
:1013600000F018F8A64200D10FE008F101084FF094
:10137000000AA1442744301B86B2B6F5805F02DD27
:101380004FF4805400E03446B9E700BFBDE8F08771
:10139000660000202DE9F04107460E461446F0B2E3
:1013A000C0F58075AC4200DC254612E02A46314685
:1013B000384600F013F8AC4200D10BE02F442E4425
:1013C000601B84B2B4F5807F02DD4FF4807500E0CD
:1013D0002546EBE700BFBDE8F08100002DE9F041B4
:1013E00006460C461746FFF7ADFE00200F49086081
:1013F0000220FFF7EBFDC4F30740FFF7E7FDC4F35E
:101400000720FFF7E3FDE0B2FFF7E0FD002504E071
:10141000705DFFF7DBFD681C85B2BD42F8DB012083
:1014200002490860FFF752FFBDE8F08188012142C0
:101430000246002013890B400BB1012000E0002080
:1014400070470146888970478181704710B5002236
:10145000028802F441520B884C8823438C88234332
:10146000CC8823430C8923434C8923438C89234311
:10147000CC8923431A430280838B4FF2FF742340AD
:1014800083830B8A038210BD03460A46002105E0D0
:10149000491CB1F5FA6F01D9002070470D4800884A
:1014A00000F002000028F3D00A48001D028000214D
:1014B00005E0491CB1F5FA6F01D90020EDE70548B8
:1014C000008800F001000028F3D00248001D0088C9
:1014D000C0B2E2E708380040704710B500F002F8EB
:1014E00010BD00000CB5002001900090334800684A
:1014F00040F480303149086000BF3048006800F493
:10150000003000900198401C0190009818B9019893
:10151000B0F5A06FF1D12948006800F4003010B197
:101520000120009001E0002000900098012843D1A4
:101530002348006840F01000214908600846006810
:1015400020F0030008600846006840F002000860D0
:101550001A4840681949486008464068486008468B
:10156000406840F4806048600846406820F47C1081
:1015700048600846406840F4E81048600846006843
:1015800040F08070086000BF0C48006800F00070F8
:101590000028F9D00948406820F003000749486056
:1015A0000846406840F00200486000BF03484068B9
:1015B00000F00C000828F9D10CBD0000001002401A
:1015C00000200240042808D14FF0E021096941F0D1
:1015D00004014FF0E022116107E04FF0E0210969BA
:1015E00021F004014FF0E0221161704770470000C4
:1015F00010B51348006840F0010011490860084622
:101600004068104908400E494860084600680E4985
:1016100008400B4908600846006820F480200860F4
:101620000846406820F4FE0048604FF41F008860C0
:10163000FFF753FF4FF000600449086010BD000041
:10164000001002400000FFF8FFFFF6FE08ED00E08A
:1016500010B540F225511D4800F04AF810B31B4860
:1016600000F002F9C4B21A48008800F40040C8B97A
:101670001748008800F4804060B10A2C03D0002095
:101680001349088020E01248008840F400401049C7
:10169000088019E00D2C06D10D48008840F48040E8
:1016A0000B49088010E00A480088C0F30D00094982
:1016B0000C5407480088401C0549088008460088EB
:1016C000C72801DD0020088010BD0000003801405F
:1016D000400000207810002021B1828942F400529D
:1016E000828104E082894DF6FF731A40828170473F
:1016F00070B50246002400230025002040F66A163B
:10170000B14200D100BFC1F3421501F01F03012611
:1017100006FA03F3012D02D19689334006E0022D2B
:1017200002D1168A334001E0968A33400C1201261A
:1017300006FA04F41688344013B10CB1012000E01D
:10174000002070BDF0B503460024002600250020CF
:1017500040F66A17B94200D100BF1846C1F34214DF
:1017600001F01F06012707FA06F5012C01D10C3004
:1017700004E0022C01D1103000E014301AB10768E7
:101780002F43076002E00768AF430760F0BD000029
:101790002DE9F04786B005460E460024A24600BF5C
:1017A000A1460027B08900B100BF2F462C8A4CF615
:1017B000FF700440F08804432C82AC894EF6F3108D
:1017C0000440B08831890843718908430443AC81DF
:1017D000AC8A4FF6FF400440B0890443AC8201A8B4
:1017E000FFF74EFB1F48874202D1DDF810A001E051
:1017F000DDF80CA0A88900F4004040B10AEBCA0053
:1018000000EB0A1031684900B0FBF1F807E00AEB81
:10181000CA0000EB0A1031688900B0FBF1F86420BF
:10182000B8FBF0F004012009642101FB1089A889AC
:1018300000F4004040B1322000EBC900B0FBF1F0F1
:1018400000F00700044308E0322000EB0910642197
:10185000B0FBF1F000F00F0004432C8106B0BDE8AE
:10186000F08700000038014001468888C0F3080076
:10187000704700BFFEE700BF7047000010B56FF073
:101880000400FFF79FFE0A4800680A49B0FBF1F028
:10189000094908700846007800EB4001C1EBC01010
:1018A0004FF6FF7101EAC0000449088010BD000036
:1018B0000000002000127A003600002038000020CE
:1018C0000146114A12884A434FF0E0235A61002230
:1018D0009A611A46126942F001021A6100BF4FF084
:1018E000E022106900F001021AB100F48032002AEF
:1018F000F5D04FF0E022126922F001024FF0E02310
:101900001A6100229A6170473800002000BF054A22
:10191000128802F04002002AF9D0C2B2014B1B1D0E
:101920001A8070470038014088B04FF40015FFF767
:10193000A5FF4FF4E13000F051F8FFF7C7F9FEF7CB
:101940007BFEFEF72DFFFFF731FC3CE00020FEF7A9
:10195000A3FE0446032C10D11F20FEF7F1FE012048
:1019600019A31022002100900846FFF715F9A5F1F0
:10197000640116221648FFF7B3FC012C23D11F2067
:10198000FEF7DEFE012013A310220021009008467E
:10199000FFF702F940F6B830FFF792FFA5F16401B6
:1019A000162202A8FFF730FC1F20FEF7C9FE012017
:1019B00002AB1022002100900846FFF7EDF840F638
:1019C000B830FFF77DFFC1E757524954450000008A
:1019D0007C1A0008524541440000000010B586B052
:1019E0000446012144F20400FFF73AFA4FF4007074
:1019F000ADF8140003208DF8160018208DF817009C
:101A000005A91C48FEF735FD4FF48060ADF81400C1
:101A100004208DF8170005A91648FEF72AFD252099
:101A20008DF8000003208DF801008DF802000120E0
:101A30008DF803006846FFF7C9F901940020ADF85E
:101A40000800ADF80A00ADF80C00ADF810000C204D
:101A5000ADF80E0001A90848FFF79AFE012240F2F6
:101A600025510548FFF76EFE01210348FFF734FEBC
:101A700006B010BD000801400038014057617253A4
:101A800068697053544D33322053504920544553A4
:101A900054000000000000000000000000000000F2
:101AA0000404040404040004000000140A0A0000F2
:101AB000000000000000000014143F140A3F0A0A4E
:101AC000000000041E1505060C14150F040000008C
:101AD00012150D0A142C2A1200000000040A0A1E16
:101AE0001515093600000002020100000000000088
:101AF0000000002010080808080808102000000254
:101B00000408080808080804020000000004150E74
:101B10000E150400000000000404041F0404040067
:101B200000000000000000000000000202010000B0
:101B30000000001F00000000000000000000000086
:101B4000000000020000001008080804040202025D
:101B5000010000000E1111111111110E0000000002
:101B6000040604040404040E000000000E11110811
:101B70000402011F000000000E11100C1010110EC5
:101B800000000000080C0A0A091E081800000000E6
:101B90001F01010F1010110E000000000E09010FAF
:101BA0001111110E000000001F09080404040404B0
:101BB000000000000E11110E1111110E00000000A6
:101BC0000E1111111E10120E000000000000040082
:101BD00000000004000000000000000400000004F9
:101BE0000400002010080402040810200000000077
:101BF00000001F00001F0000000000020408102069
:101C000010080402000000000E1111080404000472
:101C1000000000000E111915151D011E0000000026
:101C200004040C0A0A1E1233000000000F12120EE8
:101C30001212120F000000001E1101010101110E0D
:101C4000000000000F1212121212120F000000000A
:101C50001F120A0E0A02121F000000001F120A0EB5
:101C60000A020207000000001C1201013911120CC7
:101C7000000000003312121E121212330000000086
:101C80001F0404040404041F000000003E080808A8
:101C9000080808090700000037120A060A0A123766
:101CA00000000000070202020202223F00000000C2
:101CB0001B1B1B1B15151515000000003B121616EB
:101CC0001A1A1217000000000E1111111111110E35
:101CD000000000000F12120E0202020700000000B6
:101CE0000E1111111117190E180000000F12120E0B
:101CF0000A121237000000001E1101060810110F11
:101D0000000000001F1504040404040E000000007D
:101D1000331212121212120C000000003312120AB7
:101D20000A0C0404000000001515150E0A0A0A0A20
:101D3000000000001B0A0A04040A0A1B000000003D
:101D40001B0A0A040404040E000000001F09080412
:101D50000402121F0000001C040404040404040410
:101D60001C00000202020404080808100000000E13
:101D700008080808080808080E0000040A00000007
:101D80000000000000000000000000000000000053
:101D9000003F000400000000000000000000000000
:101DA0000000000C121C123C000000000302020E96
:101DB0001212120E000000000000001C1202021C91
:101DC000000000001810101C1212123C000000004D
:101DD0000000000C121E021C000000003804041E4B
:101DE0000404041E000000000000003C120C021E4F
:101DF000221C00000302020E121212370000000023
:101E0000040000060404040E000000000800000C9A
:101E100008080808080700000302023A0A0E1237F1
:101E200000000000070404040404041F0000000074
:101E30000000000F15151515000000000000000F30
:101E400012121237000000000000000C1212120CD7
:101E5000000000000000000F1212120E0207000026
:101E60000000001C1212121C103800000000001BA1
:101E700006020207000000000000001E020C101EF7
:101E8000000000000004040E040404180000000018
:101E90000000001B1212123C00000000000000377E
:101EA000120A0C040000000000000015150E0A0ABA
:101EB000000000000000001B0A040A1B00000000D4
:101EC00000000037120A0C04040300000000001E8A
:101ED0000804041E00000018080808040808080880
:101EE0001800080808080808080808080808000674
:101EF0000404040804040404060002251800000079
:101F000000000000000000000000000000000000D1
:101F10000000000000000000000808080808080889
:101F200000001818000000486C2412000000000097
:101F30000000000000000000002424247F12121280
:101F40007F12121200000000081C2A2A0A0C18280E
:101F5000282A2A1C080800000022251515152A58D1
:101F60005454542200000000000C1212120A76256C
:101F70002911916E00000006060403000000000015
:101F800000000000000000402010100808080808A9
:101F90000810102040000002040808101010101053
:101FA0001008080402000000000008086B1C1C6BED
:101FB00008080000000000000000080808087F086A
:101FC00008080800000000000000000000000000F9
:101FD0000000060604030000000000000000FE00F0
:101FE00000000000000000000000000000000000F1
:101FF000000006060000000080404020201010086D
:102000000804040202000000001824424242424236
:10201000424224180000000000080E0808080808C2
:102020000808083E00000000003C42424220201008
:102030000804427E00000000003C4242201820407C
:102040004042221C000000000020302824242222CC
:102050007E20207800000000007E0202021A264046
:102060004042221C0000000000382402021A2642CE
:102070004242241800000000007E222210100808AE
:102080000808080800000000003C424242241824CE
:102090004242423C00000000001824424242645880
:1020A0004040241C00000000000000001818000040
:1020B00000001818000000000000000000080000E8
:1020C000000000080804000000402010080402047A
:1020D0000810204000000000000000007F00000009
:1020E0007F000000000000000002040810204020D3
:1020F0001008040200000000003C4242464020104C
:102100001000181800000000001C225A55555555A3
:102110002D42221C00000000000808181414243C62
:10212000224242E700000000001F2222221E22421B
:102130004242221F00000000007C424201010101D6
:102140000142221C00000000001F22424242424283
:102150004242221F00000000003F4212121E1212D3
:102160000242423F00000000003F4212121E1212C3
:102170000202020700000000003C2222010101715E
:102180002122221C0000000000E7424242427E421F
:10219000424242E700000000003E08080808080824
:1021A0000808083E00000000007C101010101010FD
:1021B00010101010110F0000007722120A0E0A12E0
:1021C000122222770000000000070202020202022F
:1021D0000202427F000000000077363636362A2A97
:1021E0002A2A2A6B0000000000E346464A4A52525F
:1021F0005262624700000000001C224141414141FF
:102200004141221C00000000003F424242423E0287
:102210000202020700000000001C2241414141412E
:102220004D53321C60000000003F4242423E1212F9
:10223000222242C700000000007C42420204182013
:102240004042423E00000000007F4908080808089C
:102250000808081C0000000000E7424242424242D7
:102260004242423C0000000000E742422224241483
:102270001418080800000000006B494949495555E9
:10228000362222220000000000E7422424181818F9
:10229000242442E7000000000077222214140808DA
:1022A0000808081C00000000007E2120101008040F
:1022B0000442423F0000007808080808080808089F
:1022C0000808080878000000020204040808081042
:1022D000102020204040001E101010101010101070
:1022E000101010101E000038440000000000000014
:1022F00000000000000000000000000000000000DE
:102300000000000000FF00060800000000000000C0
:10231000000000000000000000000000003C4278C7
:10232000444242FC0000000000030202021A26425E
:102330004242261A0000000000000000003844025B
:1023400002024438000000000060404040784442EF
:10235000424264D80000000000000000003C427EC1
:102360000202423C0000000000F08808087E0808D5
:102370000808083E0000000000000000007C222247
:102380001C023C42423C000000030202023A464268
:10239000424242E700000000000C0C00000E08085A
:1023A0000808083E000000000030300000382020FF
:1023B00020202020221E0000000302020272120AC6
:1023C0001612227700000000000E0808080808080E
:1023D0000808083E0000000000000000007F929204
:1023E000929292B70000000000000000003B4642BD
:1023F000424242E70000000000000000003C424270
:102400004242423C0000000000000000001B264247
:102410004242221E020700000000000000784442F1
:102420004242447840E000000000000000774C0485
:102430000404041F0000000000000000007C4202B1
:102440003C40423E0000000000000008083E080832
:10245000080808300000000000000000006342424D
:10246000424262DC000000000000000000E742245D
:1024700024140808000000000000000000EB494997
:1024800055552222000000000000000000762418AC
:102490001818246E000000000000000000E742242D
:1024A000241418080807000000000000007E221015
:1024B0000808447E000000C020202020201020209A
:1024C00020202020C000101010101010101010102C
:1024D000101010101010000608080808081008084E
:1024E0000808080806000C32C200000000000000C6
:1024F0000000000000000000000000001FE01FC0FE
:102500006FD077B0703070307030703070307030A5
:10251000201070307030703070307030703067D094
:102520006FE01FE01FE000000000000038007800AE
:1025300036002E000E000E000E000E000E000400ED
:10254000000004000E000E000E000E000E000E0033
:102550000E000E0004000000000000003FF07FE0CD
:102560007FE03FD0003000300030003000301FD01E
:102570001FE02FE077E070007000700060006FF0E7
:102580005FF03FF03FF00000000000003FF07FF000
:102590007FE03FD0003000300030003000303FB0EE
:1025A0007FD07FD03FB000300030003000303FD0CF
:1025B0007FE07FF03FF0000000000000201070304E
:1025C000703070307030703070307030703037B0C4
:1025D0000FD00FD007B00030003000300030003096
:1025E0000030003000100000000000001FF05FF01D
:1025F0006FF077F070007000700070003F801FC0B7
:102600001FC00FB0003000300030003000303FD02D
:102610007FD07FE03FE00000000000001FF01FF0CF
:102620006FF077F07000700070007000700077C07D
:102630002FC06FD077B0703070307030703067D08E
:102640006FE01FE01FE00000000000003FE07FE0BF
:102650007FD03F900030003000300030003000303C
:10266000001000100030003000300030003000302A
:102670000030003000100000000000001FE01FC00C
:102680006FD077B07030703070307030703077B09D
:102690002FD06FF077B0703070307030703067D0FE
:1026A0006FE01FE01FC00000000000001FE01FC01F
:1026B0006FD077B0703070307030703070306FB075
:1026C0000FD00FF00FB000300030003000303FD09E
:1026D0007FE07FE03FC0000000000000000000003D
:1026E000000000000000600060002000000000000A
:1026F00000000000000020006000600000000000FA
:1027000000000000000000000000000000000000C9
:1027100000000000000000000000000000000000B9
:10272000000000000000000000003C003C003C00F5
:10273000000000000000D1EE100011F81010102071
:10274000FC40108031FE3892549254929112112222
:102750001222144210941108D4BD10281024102005
:102760007DFC11201124FD241128112851105D94A5
:10277000512C704450004FFE8000D1EE0000000448
:102780000000060020063FF00600600640807FE162
:1027900000060600060C00061FFC0F926C0EC64CCD
:1027A0000EC4CC16488C16118826210826420846ED
:1027B00084080608080610180661F8060070040070
:1027C00000000000D4BD00000000000002008002F4
:1027D00000E00200983FE088020084020FFC020C37
:1027E00080022C807FFC88030C98130C901B0CD06B
:1027F0001BFD60130E60130C641308B42F011C231F
:10280000020C21CC02403FFC400018000000D7D44D
:102810000000000000000000000200000003800033
:102820000003000000060000000400000204008015
:1028300001FFFFE0018001800180018001800180B3
:10284000018001800180018001FFFF800180018003
:102850000180018001800180018001800180018070
:102860000180018001FFFF800180018001800180E3
:1028700001800180018001800180018001FFFF80D3
:1028800001800180018001800100018000000000C2
:102890003031323334353637383941424344454696
:1028A0004030580030313233343536373839616290
:1028B00063646566403078004C4544300000000099
:1028C0004C45443100000000E828000800000020CA
:1028D000580000006C010008402900085800002042
:1028E000481700008801000800A24A040000000008
:1028F000000000000102030406070809B8280008C8
:102900000008014008000000C02800080014014031
:102910000200000001000000FFFF000014EF0000B3
:1029200000000000000000000000000000000102A4
:102930000304010203040607080902040608000054
:0400000508000131BD
:00000001FF
